{
  "contractName": "Heartbeat",
  "abi": [
    {
      "constant": false,
      "inputs": [
        {
          "name": "addr",
          "type": "address"
        }
      ],
      "name": "removeConfidant",
      "outputs": [
        {
          "name": "",
          "type": "bool"
        }
      ],
      "payable": false,
      "stateMutability": "nonpayable",
      "type": "function"
    },
    {
      "constant": false,
      "inputs": [
        {
          "name": "addr",
          "type": "address"
        }
      ],
      "name": "addConfidant",
      "outputs": [
        {
          "name": "",
          "type": "bool"
        }
      ],
      "payable": false,
      "stateMutability": "nonpayable",
      "type": "function"
    },
    {
      "constant": false,
      "inputs": [
        {
          "name": "addr",
          "type": "address"
        }
      ],
      "name": "removeOwner",
      "outputs": [
        {
          "name": "",
          "type": "bool"
        }
      ],
      "payable": false,
      "stateMutability": "nonpayable",
      "type": "function"
    },
    {
      "constant": false,
      "inputs": [
        {
          "name": "addr",
          "type": "address"
        }
      ],
      "name": "addOwner",
      "outputs": [
        {
          "name": "",
          "type": "bool"
        }
      ],
      "payable": false,
      "stateMutability": "nonpayable",
      "type": "function"
    },
    {
      "constant": false,
      "inputs": [
        {
          "name": "interval",
          "type": "uint256"
        }
      ],
      "name": "setUpdateInterval",
      "outputs": [],
      "payable": false,
      "stateMutability": "nonpayable",
      "type": "function"
    },
    {
      "constant": false,
      "inputs": [],
      "name": "spawnDeathNotification",
      "outputs": [],
      "payable": false,
      "stateMutability": "nonpayable",
      "type": "function"
    },
    {
      "constant": false,
      "inputs": [],
      "name": "update",
      "outputs": [
        {
          "name": "success",
          "type": "bool"
        }
      ],
      "payable": false,
      "stateMutability": "nonpayable",
      "type": "function"
    },
    {
      "constant": true,
      "inputs": [],
      "name": "getDeathTime",
      "outputs": [
        {
          "name": "",
          "type": "uint256"
        }
      ],
      "payable": false,
      "stateMutability": "view",
      "type": "function"
    },
    {
      "inputs": [
        {
          "name": "_updateInterval",
          "type": "uint256"
        },
        {
          "name": "_description",
          "type": "string"
        }
      ],
      "payable": false,
      "stateMutability": "nonpayable",
      "type": "constructor"
    },
    {
      "payable": true,
      "stateMutability": "payable",
      "type": "fallback"
    },
    {
      "anonymous": false,
      "inputs": [
        {
          "indexed": true,
          "name": "initiator",
          "type": "address"
        }
      ],
      "name": "CanaryUpdated",
      "type": "event"
    },
    {
      "anonymous": false,
      "inputs": [
        {
          "indexed": true,
          "name": "initiator",
          "type": "address"
        },
        {
          "indexed": false,
          "name": "from",
          "type": "uint256"
        },
        {
          "indexed": false,
          "name": "to",
          "type": "uint256"
        }
      ],
      "name": "UpdateIntervalChanged",
      "type": "event"
    },
    {
      "anonymous": false,
      "inputs": [
        {
          "indexed": true,
          "name": "initiator",
          "type": "address"
        },
        {
          "indexed": false,
          "name": "wasAliveUntil",
          "type": "uint256"
        },
        {
          "indexed": false,
          "name": "_lastUpdate",
          "type": "uint256"
        }
      ],
      "name": "CanaryDied",
      "type": "event"
    }
  ],
  "bytecode": "0x60606040526000600460006101000a81548160ff0219169083151502179055506000600760006101000a81548163ffffffff021916908363ffffffff1602179055506000600760046101000a81548163ffffffff021916908363ffffffff160217905550341561006e57600080fd5b604051610c9e380380610c9e833981016040528080519060200190919080518201919050508160008190555080600390805190602001906100b0929190610144565b506000544201600181905550426002819055506001600560003373ffffffffffffffffffffffffffffffffffffffff1673ffffffffffffffffffffffffffffffffffffffff16815260200190815260200160002060006101000a81548160ff0219169083151502179055506001600760006101000a81548163ffffffff021916908363ffffffff16021790555050506101e9565b828054600181600116156101000203166002900490600052602060002090601f016020900481019282601f1061018557805160ff19168380011785556101b3565b828001600101855582156101b3579182015b828111156101b2578251825591602001919060010190610197565b5b5090506101c091906101c4565b5090565b6101e691905b808211156101e25760008160009055506001016101ca565b5090565b90565b610aa6806101f86000396000f30060606040526004361061008e576000357c0100000000000000000000000000000000000000000000000000000000900463ffffffff16806310f811f2146100935780631248cc9f146100e4578063173825d9146101355780637065cb48146101865780637124c683146101d75780639378f2c2146101fa578063a2e620451461020f578063d924182b1461023c575b600080fd5b341561009e57600080fd5b6100ca600480803573ffffffffffffffffffffffffffffffffffffffff16906020019091905050610265565b604051808215151515815260200191505060405180910390f35b34156100ef57600080fd5b61011b600480803573ffffffffffffffffffffffffffffffffffffffff169060200190919050506103c7565b604051808215151515815260200191505060405180910390f35b341561014057600080fd5b61016c600480803573ffffffffffffffffffffffffffffffffffffffff16906020019091905050610528565b604051808215151515815260200191505060405180910390f35b341561019157600080fd5b6101bd600480803573ffffffffffffffffffffffffffffffffffffffff1690602001909190505061068a565b604051808215151515815260200191505060405180910390f35b34156101e257600080fd5b6101f860048080359060200190919050506107eb565b005b341561020557600080fd5b61020d6108b8565b005b341561021a57600080fd5b610222610953565b604051808215151515815260200191505060405180910390f35b341561024757600080fd5b61024f610a70565b6040518082815260200191505060405180910390f35b60004260015411156103b957600560003373ffffffffffffffffffffffffffffffffffffffff1673ffffffffffffffffffffffffffffffffffffffff16815260200190815260200160002060009054906101000a900460ff16156103b457600660008373ffffffffffffffffffffffffffffffffffffffff1673ffffffffffffffffffffffffffffffffffffffff16815260200190815260200160002060009054906101000a900460ff16151561031f57600090506103b3565b6000600660008473ffffffffffffffffffffffffffffffffffffffff1673ffffffffffffffffffffffffffffffffffffffff16815260200190815260200160002060006101000a81548160ff0219169083151502179055506001600760048282829054906101000a900463ffffffff160392506101000a81548163ffffffff021916908363ffffffff160217905550600190505b5b6103c2565b6103c16108b8565b5b919050565b600042600154111561051a57600560003373ffffffffffffffffffffffffffffffffffffffff1673ffffffffffffffffffffffffffffffffffffffff16815260200190815260200160002060009054906101000a900460ff161561051557600660008373ffffffffffffffffffffffffffffffffffffffff1673ffffffffffffffffffffffffffffffffffffffff16815260200190815260200160002060009054906101000a900460ff16156104805760009050610514565b6001600660008473ffffffffffffffffffffffffffffffffffffffff1673ffffffffffffffffffffffffffffffffffffffff16815260200190815260200160002060006101000a81548160ff0219169083151502179055506001600760048282829054906101000a900463ffffffff160192506101000a81548163ffffffff021916908363ffffffff160217905550600190505b5b610523565b6105226108b8565b5b919050565b600042600154111561067c57600560003373ffffffffffffffffffffffffffffffffffffffff1673ffffffffffffffffffffffffffffffffffffffff16815260200190815260200160002060009054906101000a900460ff161561067757600560008373ffffffffffffffffffffffffffffffffffffffff1673ffffffffffffffffffffffffffffffffffffffff16815260200190815260200160002060009054906101000a900460ff1615156105e25760009050610676565b6000600560008473ffffffffffffffffffffffffffffffffffffffff1673ffffffffffffffffffffffffffffffffffffffff16815260200190815260200160002060006101000a81548160ff0219169083151502179055506001600760008282829054906101000a900463ffffffff160392506101000a81548163ffffffff021916908363ffffffff160217905550600190505b5b610685565b6106846108b8565b5b919050565b60004260015411156107dd57600560003373ffffffffffffffffffffffffffffffffffffffff1673ffffffffffffffffffffffffffffffffffffffff16815260200190815260200160002060009054906101000a900460ff16156107d857600560008373ffffffffffffffffffffffffffffffffffffffff1673ffffffffffffffffffffffffffffffffffffffff16815260200190815260200160002060009054906101000a900460ff161561074357600090506107d7565b6001600560008473ffffffffffffffffffffffffffffffffffffffff1673ffffffffffffffffffffffffffffffffffffffff16815260200190815260200160002060006101000a81548160ff0219169083151502179055506001600760008282829054906101000a900463ffffffff160192506101000a81548163ffffffff021916908363ffffffff160217905550600190505b5b6107e6565b6107e56108b8565b5b919050565b4260015411156108ac57600560003373ffffffffffffffffffffffffffffffffffffffff1673ffffffffffffffffffffffffffffffffffffffff16815260200190815260200160002060009054906101000a900460ff16156108a7573373ffffffffffffffffffffffffffffffffffffffff167fc5db0d1d3e455735a45512c784590baab534f7587508608280d5c615546cc88460005483604051808381526020018281526020019250505060405180910390a2806000819055505b6108b5565b6108b46108b8565b5b50565b426001541080156108d65750600460009054906101000a900460ff16155b15610951573373ffffffffffffffffffffffffffffffffffffffff167f90fce9709b9b52ead33d338effbac9b24c3f0b127d433f8251900909dbb6619a600154600254604051808381526020018281526020019250505060405180910390a26001600460006101000a81548160ff0219169083151502179055505b565b6000426001541115610a6457600560003373ffffffffffffffffffffffffffffffffffffffff1673ffffffffffffffffffffffffffffffffffffffff16815260200190815260200160002060009054906101000a900460ff1680610a005750600660003373ffffffffffffffffffffffffffffffffffffffff1673ffffffffffffffffffffffffffffffffffffffff16815260200190815260200160002060009054906101000a900460ff165b15610a5f576000544201600181905550426002819055503373ffffffffffffffffffffffffffffffffffffffff167f9d6a590eb6ef5b168be174d1f31fb27e1a7024642e6089c66f55238b9d2c63eb60405160405180910390a2600190505b610a6d565b610a6c6108b8565b5b90565b60006001549050905600a165627a7a723058201a089b0c60ab32e48f18850f7829f0309ae8c2da2d5f1e48ecbd51793c4a2c0b0029",
  "source": "pragma solidity ^0.4.13;\n\ncontract Heartbeat {\n\n  uint updateInterval;\n  uint aliveUntil;\n  uint lastUpdate;\n  string description;\n  bool isDeathNotificationIssued = false;\n\n  mapping (address => bool) owners;\n  mapping (address => bool) confidants;\n\n  uint32 ownersCount = 0;\n  uint32 confidantsCount = 0;\n\n  event CanaryUpdated(address indexed initiator);\n  event UpdateIntervalChanged(address indexed initiator, uint from, uint to);\n  event CanaryDied(address indexed initiator, uint wasAliveUntil, uint _lastUpdate);\n\n  function Heartbeat (uint _updateInterval,\n                   string _description) {\n    updateInterval = _updateInterval;\n    description = _description;\n    aliveUntil = now + updateInterval;\n    lastUpdate = now;\n    owners[msg.sender] = true;\n    ownersCount = 1;\n  }\n\n  function update () alive onlyTrusted returns (bool success) {\n    aliveUntil = now + updateInterval;\n    lastUpdate = now;\n    CanaryUpdated(msg.sender);\n    return true;\n  }\n\n  function setUpdateInterval (uint interval) alive onlyOwners {\n    UpdateIntervalChanged(msg.sender, updateInterval, interval);\n    updateInterval = interval;\n  }\n\n  function getDeathTime () constant returns (uint) {\n    return aliveUntil;\n  }\n\n  function spawnDeathNotification () {\n    if (aliveUntil < now && !isDeathNotificationIssued) {\n      CanaryDied(msg.sender, aliveUntil, lastUpdate);\n      isDeathNotificationIssued = true;\n    }\n  }\n\n  // Returns false iff the given owner is already added.\n  function addOwner (address addr) alive onlyOwners returns (bool) {\n    if (owners[addr]) {\n      return false;\n    }\n    owners[addr] = true;\n    ownersCount += 1;\n    return true;\n  }\n\n  // Returns false iff the given owner does not exist.\n  function removeOwner (address addr) alive onlyOwners returns (bool) {\n    if (!owners[addr]) {\n      return false;\n    }\n    owners[addr] = false;\n    ownersCount -= 1;\n    return true;\n  }\n\n  // Returns false iff the given confidant is already added.\n  function addConfidant (address addr) alive onlyOwners returns (bool) {\n    if (confidants[addr]) {\n      return false;\n    }\n    confidants[addr] = true;\n    confidantsCount += 1;\n    return true;\n  }\n\n  // Returns false iff the given confidant does not exist.\n  function removeConfidant (address addr) alive onlyOwners returns (bool) {\n    if (!confidants[addr]) {\n      return false;\n    }\n    confidants[addr] = false;\n    confidantsCount -= 1;\n    return true;\n  }\n\n  modifier alive {\n    if (aliveUntil > now) {\n      _;\n    } else {\n      spawnDeathNotification();\n    }\n  }\n\n  modifier onlyOwners {\n    if (owners[msg.sender]) {\n      _;\n    }\n  }\n\n  modifier onlyTrusted {\n    if (owners[msg.sender] || confidants[msg.sender]) {\n      _;\n    }\n  }\n\n  function () payable {\n    revert();\n  }\n}",
  "sourcePath": "/Users/kamescg/Documents/Projects/openSource/RapidResponse/code/dev/contracts/Heartbeat.sol",
  "compiler": {
    "name": "solc",
    "version": "0.4.18+commit.9cf6e910.Emscripten.clang"
  },
  "schemaVersion": "1.0.1",
  "updatedAt": "2018-01-22T02:29:41.187Z"
}